{
  "_format": "hh-sol-artifact-1",
  "contractName": "Bank",
  "sourceName": "contracts/Bank.sol",
  "abi": [
    {
      "inputs": [
        {
          "internalType": "address",
          "name": "_user",
          "type": "address"
        }
      ],
      "name": "balanceOf",
      "outputs": [
        {
          "internalType": "uint256",
          "name": "",
          "type": "uint256"
        }
      ],
      "stateMutability": "view",
      "type": "function"
    },
    {
      "inputs": [],
      "name": "withdraw",
      "outputs": [],
      "stateMutability": "nonpayable",
      "type": "function"
    },
    {
      "stateMutability": "payable",
      "type": "receive"
    }
  ],
  "bytecode": "0x608060405234801561001057600080fd5b50610351806100206000396000f3fe60806040526004361061002d5760003560e01c80633ccfd60b1461008d57806370a08231146100a457610088565b3661008857346000803373ffffffffffffffffffffffffffffffffffffffff1673ffffffffffffffffffffffffffffffffffffffff1681526020019081526020016000206000828254610080919061022d565b925050819055005b600080fd5b34801561009957600080fd5b506100a26100e1565b005b3480156100b057600080fd5b506100cb60048036038101906100c691906102c4565b6101ac565b6040516100d89190610300565b60405180910390f35b3373ffffffffffffffffffffffffffffffffffffffff166108fc6000803373ffffffffffffffffffffffffffffffffffffffff1673ffffffffffffffffffffffffffffffffffffffff168152602001908152602001600020549081150290604051600060405180830381858888f19350505050158015610165573d6000803e3d6000fd5b5060008060003373ffffffffffffffffffffffffffffffffffffffff1673ffffffffffffffffffffffffffffffffffffffff16815260200190815260200160002081905550565b60008060008373ffffffffffffffffffffffffffffffffffffffff1673ffffffffffffffffffffffffffffffffffffffff168152602001908152602001600020549050919050565b6000819050919050565b7f4e487b7100000000000000000000000000000000000000000000000000000000600052601160045260246000fd5b6000610238826101f4565b9150610243836101f4565b925082820190508082111561025b5761025a6101fe565b5b92915050565b600080fd5b600073ffffffffffffffffffffffffffffffffffffffff82169050919050565b600061029182610266565b9050919050565b6102a181610286565b81146102ac57600080fd5b50565b6000813590506102be81610298565b92915050565b6000602082840312156102da576102d9610261565b5b60006102e8848285016102af565b91505092915050565b6102fa816101f4565b82525050565b600060208201905061031560008301846102f1565b9291505056fea2646970667358221220442dc5c78dd935b6b0c9904a719e675bb3fef7e5dd513f95e63bf74ba210d98964736f6c63430008120033",
  "linkReferences": {},
  "deployedLinkReferences": {}
}