{
  "_format": "hh-sol-artifact-1",
  "contractName": "Counter",
  "sourceName": "contracts/Counter.sol",
  "abi": [
    {
      "inputs": [],
      "stateMutability": "nonpayable",
      "type": "constructor"
    },
    {
      "inputs": [],
      "name": "count",
      "outputs": [],
      "stateMutability": "nonpayable",
      "type": "function"
    },
    {
      "inputs": [],
      "name": "number",
      "outputs": [
        {
          "internalType": "uint256",
          "name": "",
          "type": "uint256"
        }
      ],
      "stateMutability": "view",
      "type": "function"
    }
  ],
  "bytecode": "0x608060405234801561001057600080fd5b5033600160006101000a81548173ffffffffffffffffffffffffffffffffffffffff021916908373ffffffffffffffffffffffffffffffffffffffff160217905550610270806100616000396000f3fe608060405234801561001057600080fd5b50600436106100365760003560e01c806306661abd1461003b5780638381f58a14610045575b600080fd5b610043610063565b005b61004d61010c565b60405161005a919061012b565b60405180910390f35b600160009054906101000a900473ffffffffffffffffffffffffffffffffffffffff1673ffffffffffffffffffffffffffffffffffffffff163373ffffffffffffffffffffffffffffffffffffffff16146100f3576040517f08c379a00000000000000000000000000000000000000000000000000000000081526004016100ea906101a3565b60405180910390fd5b600080815480929190610105906101f2565b9190505550565b60005481565b6000819050919050565b61012581610112565b82525050565b6000602082019050610140600083018461011c565b92915050565b600082825260208201905092915050565b7f6f6e6c79206f776e657200000000000000000000000000000000000000000000600082015250565b600061018d600a83610146565b915061019882610157565b602082019050919050565b600060208201905081810360008301526101bc81610180565b9050919050565b7f4e487b7100000000000000000000000000000000000000000000000000000000600052601160045260246000fd5b60006101fd82610112565b91507fffffffffffffffffffffffffffffffffffffffffffffffffffffffffffffffff820361022f5761022e6101c3565b5b60018201905091905056fea2646970667358221220d42c0e9fa096735c5ecd7ac2d0fb0df602bd2c371323e8d0f1119351de11e54f64736f6c63430008120033",
  "linkReferences": {},
  "deployedLinkReferences": {}
}